{"abi":[{"type":"constructor","inputs":[{"name":"_currencyTokenAddress","type":"address","internalType":"address"},{"name":"_itemTokenAddress","type":"address","internalType":"address"}],"stateMutability":"nonpayable"},{"type":"function","name":"cancelTrade","inputs":[{"name":"_trade","type":"uint256","internalType":"uint256"}],"outputs":[],"stateMutability":"nonpayable"},{"type":"function","name":"executeTrade","inputs":[{"name":"_trade","type":"uint256","internalType":"uint256"}],"outputs":[],"stateMutability":"payable"},{"type":"function","name":"getTrade","inputs":[{"name":"_trade","type":"uint256","internalType":"uint256"}],"outputs":[{"name":"","type":"address","internalType":"address"},{"name":"","type":"uint256","internalType":"uint256"},{"name":"","type":"uint256","internalType":"uint256"},{"name":"","type":"bytes32","internalType":"bytes32"}],"stateMutability":"view"},{"type":"function","name":"onERC721Received","inputs":[{"name":"","type":"address","internalType":"address"},{"name":"","type":"address","internalType":"address"},{"name":"","type":"uint256","internalType":"uint256"},{"name":"","type":"bytes","internalType":"bytes"}],"outputs":[{"name":"","type":"bytes4","internalType":"bytes4"}],"stateMutability":"pure"},{"type":"function","name":"openTrade","inputs":[{"name":"_item","type":"uint256","internalType":"uint256"},{"name":"_price","type":"uint256","internalType":"uint256"}],"outputs":[],"stateMutability":"nonpayable"},{"type":"function","name":"tradeCounter","inputs":[],"outputs":[{"name":"","type":"uint256","internalType":"uint256"}],"stateMutability":"view"},{"type":"function","name":"trades","inputs":[{"name":"","type":"uint256","internalType":"uint256"}],"outputs":[{"name":"from","type":"address","internalType":"address payable"},{"name":"item","type":"uint256","internalType":"uint256"},{"name":"price","type":"uint256","internalType":"uint256"},{"name":"status","type":"bytes32","internalType":"bytes32"}],"stateMutability":"view"},{"type":"event","name":"TradeStatusChange","inputs":[{"name":"ad","type":"uint256","indexed":false,"internalType":"uint256"},{"name":"status","type":"bytes32","indexed":false,"internalType":"bytes32"}],"anonymous":false}],"bytecode":{"object":"0x6080604052348015600f57600080fd5b506040516109c23803806109c2833981016040819052602c91607d565b600080546001600160a01b039384166001600160a01b0319918216178255600180549390941692169190911790915560035560ab565b80516001600160a01b0381168114607857600080fd5b919050565b60008060408385031215608f57600080fd5b6096836062565b915060a2602084016062565b90509250929050565b610908806100ba6000396000f3fe6080604052600436106100705760003560e01c8063150b7a021161004e578063150b7a02146100ca5780631e6c598e146101145780632db25e051461018c578063660d15b5146101fa57600080fd5b806302d2838b1461007557806309ec6cc71461008a5780630c493fba146100aa575b600080fd5b61008861008336600461079e565b61021e565b005b34801561009657600080fd5b506100886100a536600461079e565b610482565b3480156100b657600080fd5b506100886100c53660046107b7565b61065e565b3480156100d657600080fd5b506100f66100e53660046107f5565b630a85bd0160e11b95945050505050565b6040516001600160e01b031990911681526020015b60405180910390f35b34801561012057600080fd5b5061016261012f36600461079e565b600260208190526000918252604090912080546001820154928201546003909201546001600160a01b0390911692919084565b604080516001600160a01b039095168552602085019390935291830152606082015260800161010b565b34801561019857600080fd5b506101626101a736600461079e565b600090815260026020818152604092839020835160808101855281546001600160a01b03168082526001830154938201849052938201549481018590526003909101546060909101819052919390929190565b34801561020657600080fd5b5061021060035481565b60405190815260200161010b565b600081815260026020818152604092839020835160808101855281546001600160a01b03168152600182015492810192909252918201549281019290925260030154606082018190526327b832b760e11b146102b65760405162461bcd60e51b81526020600482015260126024820152712a3930b2329034b9903737ba1027b832b71760711b60448201526064015b60405180910390fd5b806040015134146103095760405162461bcd60e51b815260206004820152601b60248201527f57726f6e672076616c756520666f7220746869732074726164652e000000000060448201526064016102ad565b80516040516000916001600160a01b03169034908381818185875af1925050503d8060008114610355576040519150601f19603f3d011682016040523d82523d6000602084013e61035a565b606091505b50509050806103a25760405162461bcd60e51b81526020600482015260146024820152732330b4b632b2103a379039b2b7321022ba3432b960611b60448201526064016102ad565b60015460208301516040516323b872dd60e01b815230600482015233602482015260448101919091526001600160a01b03909116906323b872dd90606401600060405180830381600087803b1580156103fa57600080fd5b505af115801561040e573d6000803e3d6000fd5b5050506000848152600260205260409081902067115e1958dd5d195960c21b600390910155517f4d38ed2c5ea671a5ccddc331f0ebebd94a60aaf6e572543497485d4d148f9edf91506104759085815267115e1958dd5d195960c21b602082015260400190565b60405180910390a1505050565b600081815260026020818152604092839020835160808101855281546001600160a01b03168082526001830154938201939093529281015493830193909352600390920154606082015290331461052b5760405162461bcd60e51b815260206004820152602760248201527f54726164652063616e2062652063616e63656c6c6564206f6e6c7920627920636044820152663932b0ba37b91760c91b60648201526084016102ad565b80606001516327b832b760e11b1461057a5760405162461bcd60e51b81526020600482015260126024820152712a3930b2329034b9903737ba1027b832b71760711b60448201526064016102ad565b600154815160208301516040516323b872dd60e01b81523060048201526001600160a01b03928316602482015260448101919091529116906323b872dd90606401600060405180830381600087803b1580156105d557600080fd5b505af11580156105e9573d6000803e3d6000fd5b505050600083815260026020526040908190206810d85b98d95b1b195960ba1b600390910155517f4d38ed2c5ea671a5ccddc331f0ebebd94a60aaf6e572543497485d4d148f9edf9150610652908481526810d85b98d95b1b195960ba1b602082015260400190565b60405180910390a15050565b600154604051632142170760e11b8152336004820152306024820152604481018490526001600160a01b03909116906342842e0e90606401600060405180830381600087803b1580156106b057600080fd5b505af11580156106c4573d6000803e3d6000fd5b50506040805160808101825233815260208082018781528284018781526327b832b760e11b60608501908152600380546000908152600295869052968720955186546001600160a01b0319166001600160a01b039091161786559251600180870191909155915193850193909355915192810192909255815490945090925061074e9084906108a6565b90915550506003547f4d38ed2c5ea671a5ccddc331f0ebebd94a60aaf6e572543497485d4d148f9edf90610784906001906108bf565b604080519182526327b832b760e11b602083015201610652565b6000602082840312156107b057600080fd5b5035919050565b600080604083850312156107ca57600080fd5b50508035926020909101359150565b80356001600160a01b03811681146107f057600080fd5b919050565b60008060008060006080868803121561080d57600080fd5b610816866107d9565b9450610824602087016107d9565b935060408601359250606086013567ffffffffffffffff8082111561084857600080fd5b818801915088601f83011261085c57600080fd5b81358181111561086b57600080fd5b89602082850101111561087d57600080fd5b9699959850939650602001949392505050565b634e487b7160e01b600052601160045260246000fd5b808201808211156108b9576108b9610890565b92915050565b818103818111156108b9576108b961089056fea264697066735822122040bcf2bee7887e9a309530b2fc1f1277fad73bce0a9bdf9a5f56c64adc18c67964736f6c63430008190033","linkReferences":{}},"methodIdentifiers":{"cancelTrade(uint256)":"09ec6cc7","executeTrade(uint256)":"02d2838b","getTrade(uint256)":"2db25e05","onERC721Received(address,address,uint256,bytes)":"150b7a02","openTrade(uint256,uint256)":"0c493fba","tradeCounter()":"660d15b5","trades(uint256)":"1e6c598e"},"id":40}